:1000000045C0000060C000005EC000005CC0000091
:100010005AC0000058C0000056C0000054C0000084
:1000200052C0000050C000004EC000004CC0000094
:1000300071C0000048C0000046C0000044C000007D
:1000400042C0000040C000003EC000003CC00000B4
:100050003AC0000038C0000036C0000034C00000C4
:1000600032C0000030C000002EC000002CC00000D4
:100070002AC0000028C0000026C0000024C00000E4
:1000800022C0000020C000001EC0000011241FBEBE
:10009000CFEFD0E1DEBFCDBF11E0A0E0B1E0E0E402
:1000A000F2E000E00BBF02C007900D92AA30B1074A
:1000B000D9F721E0AAE0B1E001C01D92AC30B2074F
:1000C000E1F76AD0BBC09CCF8430A0F4EDEC4E9F2A
:1000D000E12D1124E695E695E695EE0F9E2F990FFA
:1000E000990FE90F4E1BE42FF0E0E050FF4F4081E5
:1000F00060E09DC008958EB588608EBD8EB5856028
:100100008EBD88E09DE39BBD8ABD87B7806187BFB8
:10011000789408951F920F920FB60F9211240BB688
:100120000F922F933F934F935F936F937F938F9390
:100130009F93AF93BF93EF93FF9380910A018F5FDB
:1001400080930A0180910A018C3368F010920A01B1
:1001500080910B018F5F80930B0180910B018C3399
:1001600010F010920B0140910A0160910B0180E0A8
:10017000ABDFFF91EF91BF91AF919F918F917F91F5
:100180006F915F914F913F912F910F900BBE0F9008
:100190000FBE0F901F901895AEDF0DD0FFCF88B324
:1001A0008E7F88BB089588B3816088BB08958FB91E
:1001B000779BFECF089587B3876087BBF4DF87B353
:1001C0008F7787BB88B3806888BB8DB180658DB918
:1001D0000895EF92FF920F931F93CF93DF93843094
:1001E000F8F4F42EE62E082FDADF10E0E80105C05F
:1001F00080E0DDDF80E0DBDF2196C330D105C4F392
:100200008E2DD5DF8F2DD3DFC0E0D0E005C080E09C
:10021000CEDF80E0CCDF2196C017D107C4F3C3DF67
:10022000DF91CF911F910F91FF90EF90089584304F
:1002300020F4683010F46F5FCCCF0895F894FFCFAE
:0A0240007E0C5E5C3C6C6E0C7E6E62
:00000001FF
