S01B0000746573745F313132305F4D6174726978466E642E737265633A
S113000045C0000053C0000051C000004FC00000B4
S11300104DC000004BC0000049C0000047C00000B4
S113002045C0000043C0000041C000003FC00000C4
S11300303DC000003BC0000039C0000037C00000D4
S113004035C0000033C0000031C000002FC00000E4
S11300502DC000002BC0000029C0000027C00000F4
S113006025C0000023C0000021C000001FC0000004
S11300701DC000001BC0000019C0000017C0000014
S113008015C0000013C0000011C0000011241FBEE1
S1130090CFEFD0E1DEBFCDBF21E0A0E0B1E001C0F1
S11300A01D92A034B207E1F731D04DC1A9CF683019
S11300B018F44A3008F4EFC00895CF93DF93D82F93
S11300C0C0E005C04FE06C2F8D2FE5D0CF5FC83066
S11300D0C8F3DF91CF910895CF93A1D0C0E012C0AF
S11300E061E08C2FF7D060E08C2FFDD06FEF8C2F68
S11300F0D9D067E08C2FE5D061E08C2FD9D08C2F3C
S1130100DCDFCF5FC83060F3CF91089535D0E4DFF2
S113011053D0C0E0D0E015C04C2F6D2F80E0C7DF76
S11301208C2F90E001966AE070E0E6D0C82F2FEFA4
S113013089E698E1215080409040E1F700C000003A
S1130140DF5FD83048F380E0B8DFE4CF20E030E070
S11301500FC0E82FF0E0EE0FFF1FEE0FFF1FEE0FB2
S1130160FF1FE050FF4FE20FF31F10822F5F3F4F3E
S11301702830310574F30895CF93DF9350D0C0E055
S1130180D0E014C08C2FE2DF61E08C2FA3D060E0BC
S11301908C2FA9D060E08C2F85D061E08C2F88D083
S11301A067E08C2F8ED08C2FD1DF2196C830D105FB
S11301B04CF3DF91CF9108950F931F93CF93DF9367
S11301C000E010E018C0F801EE0FFF1FEE0FFF1F54
S11301D0EE0FFF1FE050FF4FEC0FFD1F40816C2F0F
S11301E0802F59D0219602C0C0E0D0E0C830D1059C
S11301F054F30F5F1F4F08301105B4F3DF91CF9113
S11302001F910F91089588B38E7F88BB089588B39A
S1130210816088BB08958FB9779BFECF089587B31B
S1130220876087BBF4DF87B38F7787BB88B3806829
S113023088BB8DB180658DB90895EF92FF920F93BD
S11302401F93CF93DF938830F8F4F42EE62E082F13
S1130250DADF10E0E80105C080E0DDDF80E0DBDF0D
S11302602196C730D105C4F38E2DD5DF8F2DD3DF72
S1130270C0E0D0E005C080E0CEDF80E0CCDF219696
S1130280C017D107C4F3C3DFDF91CF911F910F9142
S1130290FF90EF900895883020F4683010F46F5F79
S11302A0CCCF0895883018F4462F69E0C6CF08955E
S11302B0883030F4603108F06FE0462F6AE0BDCF3B
S11302C00895883030F4683008F067E0462F6BE01A
S11302D0B4CF0895883030F4623008F061E0462FDE
S11302E06CE0ABCF0895883030F4623008F061E000
S11302F0462F6FE0A2CF089597FB072E16F40094C3
S113030006D077FD08D00BD007FC05D03EF49095BD
S113031081959F4F0895709561957F4F0895AA1B0D
S1130320BB1B51E107C0AA1FBB1FA617B70710F0DC
S1130330A61BB70B881F991F5A95A9F7809590950E
S10D0340BC01CD010895F894FFCF2D
S9030000FC
