:1000000055C0000070C000006EC000006CC0000051
:100010006AC0000068C0000066C0000064C0000044
:1000200062C0000060C000005EC000005CC0000054
:100030005AC0000058C0000056C0000054C0000064
:1000400052C0000050C000004EC000004CC0000074
:100050004AC0000048C0000046C0000044C0000084
:1000600042C0000040C000003EC000003CC0000094
:100070003AC0000038C0000036C0000034C00000A4
:1000800032C0000030C000002EC00000007F7F089A
:10009000087F7F00007F7F3018307F7F003E7F41E8
:1000A0004567260000327B49496F260011241FBE98
:1000B000CFEFD0E1DEBFCDBF11E0A0E0B1E0EAE2DA
:1000C000F4E000E00BBF02C007900D92A030B10732
:1000D000D9F721E0A0E0B1E001C01D92A034B20741
:1000E000E1F723D0A0C18CCFCF93DF93CDB7DEB79C
:1000F00028970FB6F894DEBF0FBECDBF48E050E0A2
:10010000BC01CE01019686D129813A814B815C8167
:100110006D817E818F81988528960FB6F894DEBF19
:100120000FBECDBFDF91CF91089556D0B5D08CE8EA
:1001300090E0DADF022F132F242F352F462F572F71
:10014000682F792F80E068D084E990E0CDDF022F1E
:10015000132F242F352F462F572F682F792F81E00B
:100160005BD08CE990E0C0DF022F132F242F352FB6
:10017000462F572F682F792F82E04ED084EA90E0E7
:10018000B3DF022F132F242F352F462F572F682F21
:10019000792F83E041D080D02FEF8FE493EC215072
:1001A00080409040E1F700C00000C1CF20E030E087
:1001B0000FC0E82FF0E0EE0FFF1FEE0FFF1FEE0F56
:1001C000FF1FE050FF4FE20FF31F10822F5F3F4FE2
:1001D0002830310574F30895CF93DF9390D0C0E0B9
:1001E000D0E014C08C2FE2DF61E08C2FE3D060E020
:1001F0008C2FE9D060E08C2FC5D061E08C2FC8D067
:1002000067E08C2FCED08C2FD1DF2196C830D1055E
:100210004CF3DF91CF910895BF92CF92DF92EF928E
:10022000FF920F931F93CF93DF93B82EC22ED32E3E
:10023000E42EF52E862F972FC0E0D0E020C0EB2DC6
:10024000F0E0A7E0B0E0AC1BBD0BEE0FFF1FEE0F20
:10025000FF1FEE0FFF1FE050FF4FEA0FFB1F008351
:10026000202F312F4C2D5D2D6E2D7F2D08E0B6D027
:10027000022F132FC42ED52EE62EF72E2196C8302E
:10028000D105ECF2DF91CF911F910F91FF90EF908C
:10029000DF90CF90BF9008950F931F93CF93DF937C
:1002A00000E010E018C0F801EE0FFF1FEE0FFF1F77
:1002B000EE0FFF1FE050FF4FEC0FFD1F40816C2F32
:1002C000802F59D0219602C0C0E0D0E0C830D105BF
:1002D00054F30F5F1F4F08301105B4F3DF91CF9136
:1002E0001F910F91089588B38E7F88BB089588B3BE
:1002F000816088BB08958FB9779BFECF089587B33F
:10030000876087BBF4DF87B38F7787BB88B380684C
:1003100088BB8DB180658DB90895EF92FF920F93E0
:100320001F93CF93DF938830F8F4F42EE62E082F36
:10033000DADF10E0E80105C080E0DDDF80E0DBDF30
:100340002196C730D105C4F38E2DD5DF8F2DD3DF95
:10035000C0E0D0E005C080E0CEDF80E0CCDF2196B9
:10036000C017D107C4F3C3DFDF91CF911F910F9165
:10037000FF90EF900895883020F4683010F46F5F9C
:10038000CCCF0895883018F4462F69E0C6CF089581
:10039000883030F4603108F06FE0462F6AE0BDCF5E
:1003A0000895883030F4683008F067E0462F6BE03D
:1003B000B4CF0895883030F4623008F061E0462F01
:1003C0006CE0ABCF0895883030F4623008F061E023
:1003D000462F6FE0A2CF089597FB10F816940008FF
:1003E0000F93083098F00850232F342F452F562FA5
:1003F000672F782F892F902DF4CF059497958795A7
:100400007795679557954795379527950A95AAF754
:100410000F910895FB01DC0102C005900D9241503F
:0A0420005040D8F70895F894FFCF7C
:00000001FF
